{
  "_format": "hh-sol-artifact-1",
  "contractName": "ICPFusionResolver",
  "sourceName": "eth-icp-bridge/ethereum-contracts/contracts/ICPFusionResolver.sol",
  "address": "0xf4B146FbA71F41E0592668ffbF264F1D186b2Ca8",
  "abi": [
    {
      "inputs": [],
      "stateMutability": "nonpayable",
      "type": "constructor"
    },
    {
      "inputs": [],
      "name": "ChainFusionNotEnabled",
      "type": "error"
    },
    {
      "inputs": [],
      "name": "HashlockAlreadyUsed",
      "type": "error"
    },
    {
      "inputs": [],
      "name": "InvalidAmount",
      "type": "error"
    },
    {
      "inputs": [],
      "name": "InvalidHashlock",
      "type": "error"
    },
    {
      "inputs": [],
      "name": "InvalidICPRecipient",
      "type": "error"
    },
    {
      "inputs": [],
      "name": "InvalidPreimage",
      "type": "error"
    },
    {
      "inputs": [],
      "name": "InvalidTimelock",
      "type": "error"
    },
    {
      "inputs": [],
      "name": "OrderAlreadyCancelled",
      "type": "error"
    },
    {
      "inputs": [],
      "name": "OrderAlreadyCompleted",
      "type": "error"
    },
    {
      "inputs": [],
      "name": "OrderNotFound",
      "type": "error"
    },
    {
      "inputs": [
        {
          "internalType": "address",
          "name": "owner",
          "type": "address"
        }
      ],
      "name": "OwnableInvalidOwner",
      "type": "error"
    },
    {
      "inputs": [
        {
          "internalType": "address",
          "name": "account",
          "type": "address"
        }
      ],
      "name": "OwnableUnauthorizedAccount",
      "type": "error"
    },
    {
      "inputs": [],
      "name": "ReentrancyGuardReentrantCall",
      "type": "error"
    },
    {
      "inputs": [
        {
          "internalType": "address",
          "name": "token",
          "type": "address"
        }
      ],
      "name": "SafeERC20FailedOperation",
      "type": "error"
    },
    {
      "inputs": [],
      "name": "TimelockExpired",
      "type": "error"
    },
    {
      "inputs": [],
      "name": "TokenNotAuthorized",
      "type": "error"
    },
    {
      "inputs": [],
      "name": "UnauthorizedResolver",
      "type": "error"
    },
    {
      "anonymous": false,
      "inputs": [
        {
          "indexed": false,
          "internalType": "bool",
          "name": "enabled",
          "type": "bool"
        },
        {
          "indexed": false,
          "internalType": "address",
          "name": "proxy",
          "type": "address"
        },
        {
          "indexed": false,
          "internalType": "bytes32",
          "name": "canisterId",
          "type": "bytes32"
        }
      ],
      "name": "ChainFusionUpdated",
      "type": "event"
    },
    {
      "anonymous": false,
      "inputs": [
        {
          "indexed": true,
          "internalType": "bytes32",
          "name": "orderId",
          "type": "bytes32"
        },
        {
          "indexed": true,
          "internalType": "address",
          "name": "sender",
          "type": "address"
        },
        {
          "indexed": false,
          "internalType": "uint256",
          "name": "cancelledAt",
          "type": "uint256"
        }
      ],
      "name": "CrossChainOrderCancelled",
      "type": "event"
    },
    {
      "anonymous": false,
      "inputs": [
        {
          "indexed": true,
          "internalType": "bytes32",
          "name": "orderId",
          "type": "bytes32"
        },
        {
          "indexed": true,
          "internalType": "address",
          "name": "sender",
          "type": "address"
        },
        {
          "indexed": true,
          "internalType": "bytes32",
          "name": "icpRecipient",
          "type": "bytes32"
        },
        {
          "indexed": false,
          "internalType": "uint256",
          "name": "amount",
          "type": "uint256"
        },
        {
          "indexed": false,
          "internalType": "bytes32",
          "name": "hashlock",
          "type": "bytes32"
        },
        {
          "indexed": false,
          "internalType": "uint256",
          "name": "timelock",
          "type": "uint256"
        },
        {
          "indexed": false,
          "internalType": "address",
          "name": "token",
          "type": "address"
        },
        {
          "indexed": false,
          "internalType": "uint256",
          "name": "createdAt",
          "type": "uint256"
        }
      ],
      "name": "CrossChainOrderCreated",
      "type": "event"
    },
    {
      "anonymous": false,
      "inputs": [
        {
          "indexed": true,
          "internalType": "bytes32",
          "name": "orderId",
          "type": "bytes32"
        },
        {
          "indexed": true,
          "internalType": "address",
          "name": "resolver",
          "type": "address"
        },
        {
          "indexed": false,
          "internalType": "bytes32",
          "name": "preimage",
          "type": "bytes32"
        },
        {
          "indexed": false,
          "internalType": "uint256",
          "name": "resolvedAt",
          "type": "uint256"
        },
        {
          "indexed": false,
          "internalType": "uint256",
          "name": "gasUsed",
          "type": "uint256"
        }
      ],
      "name": "CrossChainOrderResolved",
      "type": "event"
    },
    {
      "anonymous": false,
      "inputs": [
        {
          "indexed": true,
          "internalType": "address",
          "name": "previousOwner",
          "type": "address"
        },
        {
          "indexed": true,
          "internalType": "address",
          "name": "newOwner",
          "type": "address"
        }
      ],
      "name": "OwnershipTransferred",
      "type": "event"
    },
    {
      "anonymous": false,
      "inputs": [
        {
          "indexed": true,
          "internalType": "address",
          "name": "resolver",
          "type": "address"
        },
        {
          "indexed": false,
          "internalType": "bool",
          "name": "authorized",
          "type": "bool"
        }
      ],
      "name": "ResolverAuthorized",
      "type": "event"
    },
    {
      "anonymous": false,
      "inputs": [
        {
          "indexed": true,
          "internalType": "address",
          "name": "token",
          "type": "address"
        },
        {
          "indexed": false,
          "internalType": "bool",
          "name": "authorized",
          "type": "bool"
        }
      ],
      "name": "TokenAuthorized",
      "type": "event"
    },
    {
      "inputs": [],
      "name": "BRIDGE_FEE_BPS",
      "outputs": [
        {
          "internalType": "uint256",
          "name": "",
          "type": "uint256"
        }
      ],
      "stateMutability": "view",
      "type": "function"
    },
    {
      "inputs": [],
      "name": "MAX_SLIPPAGE_BPS",
      "outputs": [
        {
          "internalType": "uint256",
          "name": "",
          "type": "uint256"
        }
      ],
      "stateMutability": "view",
      "type": "function"
    },
    {
      "inputs": [],
      "name": "MAX_TIMELOCK",
      "outputs": [
        {
          "internalType": "uint256",
          "name": "",
          "type": "uint256"
        }
      ],
      "stateMutability": "view",
      "type": "function"
    },
    {
      "inputs": [],
      "name": "MIN_TIMELOCK",
      "outputs": [
        {
          "internalType": "uint256",
          "name": "",
          "type": "uint256"
        }
      ],
      "stateMutability": "view",
      "type": "function"
    },
    {
      "inputs": [
        {
          "internalType": "address",
          "name": "",
          "type": "address"
        }
      ],
      "name": "authorizedResolvers",
      "outputs": [
        {
          "internalType": "bool",
          "name": "",
          "type": "bool"
        }
      ],
      "stateMutability": "view",
      "type": "function"
    },
    {
      "inputs": [
        {
          "internalType": "address",
          "name": "",
          "type": "address"
        }
      ],
      "name": "authorizedTokens",
      "outputs": [
        {
          "internalType": "bool",
          "name": "",
          "type": "bool"
        }
      ],
      "stateMutability": "view",
      "type": "function"
    },
    {
      "inputs": [
        {
          "internalType": "bytes32",
          "name": "orderId",
          "type": "bytes32"
        }
      ],
      "name": "cancelOrder",
      "outputs": [],
      "stateMutability": "nonpayable",
      "type": "function"
    },
    {
      "inputs": [],
      "name": "cancelledOrders",
      "outputs": [
        {
          "internalType": "uint256",
          "name": "",
          "type": "uint256"
        }
      ],
      "stateMutability": "view",
      "type": "function"
    },
    {
      "inputs": [],
      "name": "chainFusionEnabled",
      "outputs": [
        {
          "internalType": "bool",
          "name": "",
          "type": "bool"
        }
      ],
      "stateMutability": "view",
      "type": "function"
    },
    {
      "inputs": [],
      "name": "completedOrders",
      "outputs": [
        {
          "internalType": "uint256",
          "name": "",
          "type": "uint256"
        }
      ],
      "stateMutability": "view",
      "type": "function"
    },
    {
      "inputs": [
        {
          "internalType": "address",
          "name": "sender",
          "type": "address"
        },
        {
          "internalType": "bytes32",
          "name": "icpRecipient",
          "type": "bytes32"
        },
        {
          "internalType": "uint256",
          "name": "amount",
          "type": "uint256"
        },
        {
          "internalType": "bytes32",
          "name": "hashlock",
          "type": "bytes32"
        },
        {
          "internalType": "uint256",
          "name": "timelock",
          "type": "uint256"
        },
        {
          "internalType": "address",
          "name": "token",
          "type": "address"
        }
      ],
      "name": "createCrossChainOrder",
      "outputs": [
        {
          "internalType": "bytes32",
          "name": "orderId",
          "type": "bytes32"
        }
      ],
      "stateMutability": "payable",
      "type": "function"
    },
    {
      "inputs": [
        {
          "internalType": "bytes32",
          "name": "",
          "type": "bytes32"
        }
      ],
      "name": "crossChainOrders",
      "outputs": [
        {
          "internalType": "address",
          "name": "sender",
          "type": "address"
        },
        {
          "internalType": "bytes32",
          "name": "icpRecipient",
          "type": "bytes32"
        },
        {
          "internalType": "uint256",
          "name": "amount",
          "type": "uint256"
        },
        {
          "internalType": "bytes32",
          "name": "hashlock",
          "type": "bytes32"
        },
        {
          "internalType": "uint256",
          "name": "timelock",
          "type": "uint256"
        },
        {
          "internalType": "address",
          "name": "token",
          "type": "address"
        },
        {
          "internalType": "bool",
          "name": "completed",
          "type": "bool"
        },
        {
          "internalType": "bool",
          "name": "cancelled",
          "type": "bool"
        },
        {
          "internalType": "uint256",
          "name": "createdAt",
          "type": "uint256"
        },
        {
          "internalType": "uint256",
          "name": "resolvedAt",
          "type": "uint256"
        },
        {
          "internalType": "address",
          "name": "resolver",
          "type": "address"
        },
        {
          "internalType": "uint256",
          "name": "gasUsed",
          "type": "uint256"
        }
      ],
      "stateMutability": "view",
      "type": "function"
    },
    {
      "inputs": [
        {
          "internalType": "bytes32",
          "name": "orderId",
          "type": "bytes32"
        }
      ],
      "name": "getCrossChainOrder",
      "outputs": [
        {
          "components": [
            {
              "internalType": "address",
              "name": "sender",
              "type": "address"
            },
            {
              "internalType": "bytes32",
              "name": "icpRecipient",
              "type": "bytes32"
            },
            {
              "internalType": "uint256",
              "name": "amount",
              "type": "uint256"
            },
            {
              "internalType": "bytes32",
              "name": "hashlock",
              "type": "bytes32"
            },
            {
              "internalType": "uint256",
              "name": "timelock",
              "type": "uint256"
            },
            {
              "internalType": "address",
              "name": "token",
              "type": "address"
            },
            {
              "internalType": "bool",
              "name": "completed",
              "type": "bool"
            },
            {
              "internalType": "bool",
              "name": "cancelled",
              "type": "bool"
            },
            {
              "internalType": "uint256",
              "name": "createdAt",
              "type": "uint256"
            },
            {
              "internalType": "uint256",
              "name": "resolvedAt",
              "type": "uint256"
            },
            {
              "internalType": "address",
              "name": "resolver",
              "type": "address"
            },
            {
              "internalType": "uint256",
              "name": "gasUsed",
              "type": "uint256"
            }
          ],
          "internalType": "struct ICPFusionResolver.CrossChainOrder",
          "name": "order",
          "type": "tuple"
        }
      ],
      "stateMutability": "view",
      "type": "function"
    },
    {
      "inputs": [],
      "name": "getResolverMetadata",
      "outputs": [
        {
          "internalType": "string",
          "name": "name",
          "type": "string"
        },
        {
          "internalType": "string",
          "name": "version",
          "type": "string"
        },
        {
          "internalType": "string[]",
          "name": "supportedChains",
          "type": "string[]"
        }
      ],
      "stateMutability": "pure",
      "type": "function"
    },
    {
      "inputs": [],
      "name": "getResolverStats",
      "outputs": [
        {
          "internalType": "uint256",
          "name": "totalOrders",
          "type": "uint256"
        },
        {
          "internalType": "uint256",
          "name": "completedOrders",
          "type": "uint256"
        },
        {
          "internalType": "uint256",
          "name": "cancelledOrders",
          "type": "uint256"
        },
        {
          "internalType": "uint256",
          "name": "pendingOrders",
          "type": "uint256"
        },
        {
          "internalType": "uint256",
          "name": "totalVolume",
          "type": "uint256"
        }
      ],
      "stateMutability": "view",
      "type": "function"
    },
    {
      "inputs": [],
      "name": "icpCanisterId",
      "outputs": [
        {
          "internalType": "bytes32",
          "name": "",
          "type": "bytes32"
        }
      ],
      "stateMutability": "view",
      "type": "function"
    },
    {
      "inputs": [],
      "name": "icpCanisterProxy",
      "outputs": [
        {
          "internalType": "address",
          "name": "",
          "type": "address"
        }
      ],
      "stateMutability": "view",
      "type": "function"
    },
    {
      "inputs": [],
      "name": "isFusionCompatible",
      "outputs": [
        {
          "internalType": "bool",
          "name": "",
          "type": "bool"
        }
      ],
      "stateMutability": "pure",
      "type": "function"
    },
    {
      "inputs": [
        {
          "internalType": "bytes32",
          "name": "hashlock",
          "type": "bytes32"
        }
      ],
      "name": "isHashlockUsed",
      "outputs": [
        {
          "internalType": "bool",
          "name": "",
          "type": "bool"
        }
      ],
      "stateMutability": "view",
      "type": "function"
    },
    {
      "inputs": [
        {
          "internalType": "bytes32",
          "name": "orderId",
          "type": "bytes32"
        }
      ],
      "name": "isOrderReady",
      "outputs": [
        {
          "internalType": "bool",
          "name": "",
          "type": "bool"
        }
      ],
      "stateMutability": "view",
      "type": "function"
    },
    {
      "inputs": [],
      "name": "owner",
      "outputs": [
        {
          "internalType": "address",
          "name": "",
          "type": "address"
        }
      ],
      "stateMutability": "view",
      "type": "function"
    },
    {
      "inputs": [
        {
          "internalType": "bytes32",
          "name": "",
          "type": "bytes32"
        }
      ],
      "name": "processedOrders",
      "outputs": [
        {
          "internalType": "bool",
          "name": "",
          "type": "bool"
        }
      ],
      "stateMutability": "view",
      "type": "function"
    },
    {
      "inputs": [],
      "name": "renounceOwnership",
      "outputs": [],
      "stateMutability": "nonpayable",
      "type": "function"
    },
    {
      "inputs": [
        {
          "internalType": "address",
          "name": "token",
          "type": "address"
        },
        {
          "internalType": "uint256",
          "name": "amount",
          "type": "uint256"
        }
      ],
      "name": "rescueTokens",
      "outputs": [],
      "stateMutability": "nonpayable",
      "type": "function"
    },
    {
      "inputs": [
        {
          "internalType": "bytes32",
          "name": "orderId",
          "type": "bytes32"
        },
        {
          "internalType": "bytes32",
          "name": "preimage",
          "type": "bytes32"
        }
      ],
      "name": "resolve",
      "outputs": [],
      "stateMutability": "nonpayable",
      "type": "function"
    },
    {
      "inputs": [
        {
          "internalType": "bool",
          "name": "enabled",
          "type": "bool"
        },
        {
          "internalType": "address",
          "name": "proxy",
          "type": "address"
        },
        {
          "internalType": "bytes32",
          "name": "canisterId",
          "type": "bytes32"
        }
      ],
      "name": "setChainFusionConfig",
      "outputs": [],
      "stateMutability": "nonpayable",
      "type": "function"
    },
    {
      "inputs": [
        {
          "internalType": "address",
          "name": "resolver",
          "type": "address"
        },
        {
          "internalType": "bool",
          "name": "authorized",
          "type": "bool"
        }
      ],
      "name": "setResolverAuthorization",
      "outputs": [],
      "stateMutability": "nonpayable",
      "type": "function"
    },
    {
      "inputs": [
        {
          "internalType": "address",
          "name": "token",
          "type": "address"
        },
        {
          "internalType": "bool",
          "name": "authorized",
          "type": "bool"
        }
      ],
      "name": "setTokenAuthorization",
      "outputs": [],
      "stateMutability": "nonpayable",
      "type": "function"
    },
    {
      "inputs": [],
      "name": "totalOrders",
      "outputs": [
        {
          "internalType": "uint256",
          "name": "",
          "type": "uint256"
        }
      ],
      "stateMutability": "view",
      "type": "function"
    },
    {
      "inputs": [],
      "name": "totalVolume",
      "outputs": [
        {
          "internalType": "uint256",
          "name": "",
          "type": "uint256"
        }
      ],
      "stateMutability": "view",
      "type": "function"
    },
    {
      "inputs": [
        {
          "internalType": "address",
          "name": "newOwner",
          "type": "address"
        }
      ],
      "name": "transferOwnership",
      "outputs": [],
      "stateMutability": "nonpayable",
      "type": "function"
    },
    {
      "inputs": [
        {
          "internalType": "bytes32",
          "name": "",
          "type": "bytes32"
        }
      ],
      "name": "usedHashlocks",
      "outputs": [
        {
          "internalType": "bool",
          "name": "",
          "type": "bool"
        }
      ],
      "stateMutability": "view",
      "type": "function"
    },
    {
      "stateMutability": "payable",
      "type": "receive"
    }
  ],
  "bytecode": "0x6080806040523461009757600090600182553315610083575060018054336001600160a01b0319821681179092556040805193909290916001600160a01b03167f8be0079c531659141344cd1fd0a4f28419497f9722a3daafe3b4186f6b6457e08380a3808052600660205220805460ff191660011790556117a0908161009d8239f35b602491631e4fbdf760e01b82526004820152fd5b600080fdfe608080604052600436101561001d575b50361561001b57600080fd5b005b60003560e01c908163077dda781461124657508063106c062414610d1b5780631d83440914610cfd5780631f08d2fb14610c5f57806335d8a32914610c375780634b5b4b3914610c065780635737619814610b9d5780635b65966b14610b815780635df3f965146109d75780635f81a57c146109b95780636910e9151461099d5780636ecf6f2914610965578063715018a6146109085780637489ec23146107355780637ce7d6e414610717578063804f7b6f1461069f5780638a8283a81461067c5780638da5cb5b1461065357806391d17646146105d457806394f1825b146105b65780639bc7c586146105775780639c93e7fd146104bb578063a9933e2714610326578063afa09f7e1461025e578063b413943314610308578063c46abb4a146102ea578063d794d2d9146102ab578063e229cd761461028f578063e58225811461025e578063eb02929214610235578063f2fde38b146101ac5763fb0c75491461018a573861000f565b346101a75760003660031901126101a7576020604051610e108152f35b600080fd5b346101a75760203660031901126101a7576101c5611466565b6101cd6114cb565b6001600160a01b0390811690811561021c57600154826001600160601b0360a01b821617600155167f8be0079c531659141344cd1fd0a4f28419497f9722a3daafe3b4186f6b6457e0600080a3005b604051631e4fbdf760e01b815260006004820152602490fd5b346101a75760003660031901126101a7576007546040516001600160a01b039091168152602090f35b346101a75760203660031901126101a7576004356000526004602052602060ff604060002054166040519015158152f35b346101a75760003660031901126101a757602060405160648152f35b346101a75760203660031901126101a7576001600160a01b036102cc611466565b166000526005602052602060ff604060002054166040519015158152f35b346101a75760003660031901126101a7576020600b54604051908152f35b346101a75760003660031901126101a7576020600854604051908152f35b346101a75760003660031901126101a75760405161034381611514565b601181526020907024a1a8233ab9b4b7b72932b9b7b63b32b960791b8282015260405161036f81611514565b60058152640312e302e360dc1b838201526040519060609283830183811067ffffffffffffffff8211176104a557604052600283528460005b604081106104965750509061042c610439926040516103c681611514565b6008815267657468657265756d60c01b888201526103e386611737565b526103ed85611737565b506040516103fa81611514565b600381526206963760ec1b888201526104128661175a565b5261041c8561175a565b506040519580875286019061148b565b908482038686015261148b565b92828403604084015281518085528185019180808360051b8801019401926000965b8388106104685786860387f35b90919293948380610485600193601f19868203018752895161148b565b97019301970196909392919361045b565b858282870101520185906103a8565b634e487b7160e01b600052604160045260246000fd5b346101a75760203660031901126101a7576004356000526002602052610180604060002060018060a01b03808254169160018101549160028201549060ff60038401549160048501549060058601549160068701549460078801549660098460088b015416990154996040519b8c5260208c015260408b015260608a01526080890152811660a0880152818160a01c16151560c088015260a81c16151560e0860152610100850152610120840152610140830152610160820152f35b346101a75760203660031901126101a7576001600160a01b03610598611466565b166000526006602052602060ff604060002054166040519015158152f35b346101a75760003660031901126101a7576020604051620151808152f35b346101a75760403660031901126101a7576105ed611466565b7f287574cf078fb59442fa4e01830412374e9c38ff02733f8d1e2afc3f2325eb48602061061861147c565b926106216114cb565b6001600160a01b031660008181526005835260409020805460ff191660ff86151516179055925b6040519015158152a2005b346101a75760003660031901126101a7576001546040516001600160a01b039091168152602090f35b346101a75760003660031901126101a757602060ff600954166040519015158152f35b346101a75760403660031901126101a7576106b8611466565b7fdcef1c68f04eb69ace296de06030dc89d1110f7d56bca60edf1b83d9f402078b60206106e361147c565b926106ec6114cb565b6001600160a01b031660008181526006835260409020805460ff191660ff8615151617905592610648565b346101a75760003660031901126101a7576020600c54604051908152f35b346101a7576020806003193601126101a75760043560008181526002835260409020546001600160a01b03908116156108f657816000526002835260406000209080825416331415806108e8575b6108b25760058201805460ff8160a01c166108a05760ff8160a81c1661088e57600484015442106108525760ff60a81b1916600160a81b178155600c548291906107cc90611530565b600c5554168061083957506000808360028295948395541691015490828215610830575bf115610824575b7f8eac0b0be566e02a88afbc442a22fb5e3fe7bb9b13a6bf535493dc3b118fe184604051924284523393a3005b6040513d6000823e3d90fd5b506108fc6107f0565b9091600261084d938254169101549161159b565b6107f7565b60405162461bcd60e51b8152600481018790526014602482015273151a5b595b1bd8dac81b9bdd08195e1c1a5c995960621b6044820152606490fd5b604051633e43d23960e11b8152600490fd5b604051630368368760e01b8152600490fd5b60405162461bcd60e51b815260048101859052600e60248201526d139bdd08185d5d1a1bdc9a5e995960921b6044820152606490fd5b508060015416331415610783565b60405163d36d896560e01b8152600490fd5b346101a75760003660031901126101a7576109216114cb565b600180546001600160a01b031981169091556000906001600160a01b03167f8be0079c531659141344cd1fd0a4f28419497f9722a3daafe3b4186f6b6457e08280a3005b346101a75760003660031901126101a75760a06040516000815260006020820152600060408201526000606082015260006080820152f35b346101a75760003660031901126101a757602060405160018152f35b346101a75760003660031901126101a7576020600d54604051908152f35b346101a75760203660031901126101a75760006101606040516109f9816114f7565b8281528260208201528260408201528260608201528260808201528260a08201528260c08201528260e0820152826101008201528261012082015282610140820152015260043560005260026020526101806040600020610160604051610a5f816114f7565b600960018060a01b03845416938483526001810154602084015260028101546040840152600381015460608401526004810154608084015260ff600582015460018060a01b03811660a0860152818160a01c16151560c086015260a81c16151560e08401526006810154610100840152600781015461012084015260018060a01b036008820154166101408401520154828201526040519283526020810151602084015260408101516040840152606081015160608401526080810151608084015260018060a01b0360a08201511660a084015260c0810151151560c084015260e0810151151560e084015261010081015161010084015261012081015161012084015260018060a01b03610140820151166101408401520151610160820152f35b346101a75760003660031901126101a7576020604051600a8152f35b346101a75760403660031901126101a757610bb6611466565b60243590610bc26114cb565b6001600160a01b0390811680610bf757506000808093819360015416828215610bee575bf11561082457005b506108fc610be6565b61001b9291600154169061159b565b346101a75760203660031901126101a7576004356000526003602052602060ff604060002054166040519015158152f35b346101a75760203660031901126101a7576020610c556004356115ed565b6040519015158152f35b346101a75760603660031901126101a7576004358015158091036101a7576024356001600160a01b038116908190036101a7577f5862ce54b4c238ba2f82b9b3b90ee3e0a3737e1627ec987a025193d08764f5a99160609160443590610cc36114cb565b60ff196009541660ff841617600955806001600160601b0360a01b60075416176007558160085560405192835260208301526040820152a1005b346101a75760003660031901126101a7576020600a54604051908152f35b60c03660031901126101a757610d2f611466565b60a4356001600160a01b03811690036101a757610e10420180421161107c5760843511156112345762015180420180421161107c5760843510156112345760a4356001600160a01b031660009081526006602052604090205460ff161580611220575b61120e576001600160a01b038116156111d857602435156111c657604435156110d457606435156111b457606435600052600460205260ff604060002054166111a25760a4356001600160a01b03166110e65760443534036110d4575b6040516001600160601b03198260601b16602082015260243560348201526044356054820152606435607482015260843560948201526001600160601b031960a43560601b1660b48201524260c882015260c881528061010081011067ffffffffffffffff610100830111176104a5576101008101604052805160208201209081600052600260205260018060a01b03604060002054166110925750604051610e97816114f7565b60018060a01b0383168152602435602082015260443560408201526064356060820152608435608082015260018060a01b0360a4351660a0820152600060c0820152600060e082015242610100820152600061012082015260006101408201526000610160820152816000526002602052600961016060406000209260018060a01b038151166001600160601b0360a01b9081865416178555602082015160018601556040820151600286015560608201516003860155608082015160048601556005850160018060a01b0360a08401511681549060ff60a01b60c0860151151560a01b169060ff60a81b60e0870151151560a81b169269ffffffffffffffffffff60b01b16171717905561010082015160068601556101208201516007860155600885019060018060a01b036101408401511690825416179055015191015560643560005260046020526040600020600160ff19825416179055610ffd600a54611530565b600a55600d5491604435830180931161107c57602092600d55604051604435815260643584820152608435604082015260018060a01b0360a435166060820152426080820152827fe59a0658c79ca4d07b66f190926187741988e73ee52257de091bea969008509760a060243594600180831b031693a4604051908152f35b634e487b7160e01b600052601160045260246000fd5b61010060649162461bcd60e51b8282015260206101048201526014610124820152734f7264657220616c72656164792065786973747360601b61014482015201fd5b60405163162908e360e11b8152600490fd5b34611153576040516323b872dd60e01b602082015260018060a01b038216602482015230604482015260443560648201526064815260a081019080821067ffffffffffffffff8311176104a55760409190915261114e9060a4356001600160a01b031661153f565b610def565b60405162461bcd60e51b815260206004820152602160248201527f455448206e6f7420616363657074656420666f72204552433230206f726465726044820152607360f81b6064820152608490fd5b604051637490250360e11b8152600490fd5b604051632e0755ab60e01b8152600490fd5b604051631039c38360e31b8152600490fd5b60405162461bcd60e51b815260206004820152600e60248201526d24b73b30b634b21039b2b73232b960911b6044820152606490fd5b6040516364822e9d60e11b8152600490fd5b5060a4356001600160a01b03161515610d92565b604051637c68874160e11b8152600490fd5b346101a75760403660031901126101a75760043560243591600290816000541461145757506000818155828152602082815260409091205490916001600160a01b03918216156108f657836000526003835260ff604060002054166108a057336000526005835260ff604060002054161580611449575b611437578360005280835260406000206005810192835460ff8160a01c166108a05760a81c60ff1661088e576004820154421015611425576040518581019088825286815261130b81611514565b519020600383015403611413575a60008781526003875260409020805460ff19166001179055845460ff60a01b1916600160a01b1785554260078401556008830180546001600160a01b03191633179055935a850394851161107c5760098301948555611379600b54611530565b600b5554168061140057506000808093819301548181156113f7575b3390f115610824575b60ff600954166113e8575b5490604051938452429084015260408301527f46991c73c19bddd2788d3f5d675c3bd26cd8980aa89a8e51e50025cd10b3217a60603393a36001600055005b6113f284846116d3565b6113a9565b506108fc611395565b91015461140e91339061159b565b61139e565b604051630cb4548160e11b8152600490fd5b604051633d37e55360e11b8152600490fd5b60405163066fba9760e41b8152600490fd5b5081600154163314156112bd565b633ee5aeb560e01b8152600490fd5b600435906001600160a01b03821682036101a757565b6024359081151582036101a757565b919082519283825260005b8481106114b7575050826000602080949584010152601f8019910116010190565b602081830181015184830182015201611496565b6001546001600160a01b031633036114df57565b60405163118cdaa760e01b8152336004820152602490fd5b610180810190811067ffffffffffffffff8211176104a557604052565b6040810190811067ffffffffffffffff8211176104a557604052565b600019811461107c5760010190565b906000602091828151910182855af115610824576000513d61159257506001600160a01b0381163b155b6115705750565b604051635274afe760e01b81526001600160a01b039091166004820152602490fd5b60011415611569565b60405163a9059cbb60e01b60208201526001600160a01b039092166024830152604480830193909352918152608081019167ffffffffffffffff8311828410176104a5576115eb9260405261153f565b565b6000526002602052604060002060405190611607826114f7565b60018060a01b03808254169283815260018301546020820152600283015460408201526003830154606082015260048301549384608083015260058401549183831660a0820152610160600960ff8560a01c16159660ff8815968760c087015260a81c161515968760e0860152600682015461010086015260078201546101208601526008820154166101408501520154910152156116ca57916116c2575b506116bc574210156116b757600190565b600090565b50600090565b9050386116a6565b50505050600090565b60ff60095416158015611724575b61172057604051918252426020830152600060408301527f46991c73c19bddd2788d3f5d675c3bd26cd8980aa89a8e51e50025cd10b3217a60603393a3565b5050565b506007546001600160a01b0316156116e1565b8051156117445760200190565b634e487b7160e01b600052603260045260246000fd5b805160011015611744576040019056fea2646970667358221220d3ea47f1f3413f633b07a22904ee08a5f2c4cf47a974d5064fcc6eca08c0c7f564736f6c63430008140033",
  "linkReferences": {},
  "deployedLinkReferences": {}
}